{
  "contractName": "CrowdSale",
  "abi": [
    {
      "inputs": [
        {
          "internalType": "address",
          "name": "_tokenContract",
          "type": "address"
        },
        {
          "internalType": "uint256",
          "name": "_price",
          "type": "uint256"
        }
      ],
      "stateMutability": "nonpayable",
      "type": "constructor"
    },
    {
      "anonymous": false,
      "inputs": [
        {
          "indexed": false,
          "internalType": "address",
          "name": "_buyer",
          "type": "address"
        },
        {
          "indexed": false,
          "internalType": "uint256",
          "name": "_amount",
          "type": "uint256"
        }
      ],
      "name": "Sell",
      "type": "event"
    },
    {
      "inputs": [],
      "name": "admin",
      "outputs": [
        {
          "internalType": "address",
          "name": "",
          "type": "address"
        }
      ],
      "stateMutability": "view",
      "type": "function",
      "constant": true
    },
    {
      "inputs": [],
      "name": "tokenContract",
      "outputs": [
        {
          "internalType": "contract Cryptos",
          "name": "",
          "type": "address"
        }
      ],
      "stateMutability": "view",
      "type": "function",
      "constant": true
    },
    {
      "inputs": [],
      "name": "tokenPrice",
      "outputs": [
        {
          "internalType": "uint256",
          "name": "",
          "type": "uint256"
        }
      ],
      "stateMutability": "view",
      "type": "function",
      "constant": true
    },
    {
      "inputs": [],
      "name": "tokensSold",
      "outputs": [
        {
          "internalType": "uint256",
          "name": "",
          "type": "uint256"
        }
      ],
      "stateMutability": "view",
      "type": "function",
      "constant": true
    },
    {
      "inputs": [
        {
          "internalType": "uint256",
          "name": "_numberOfTokens",
          "type": "uint256"
        }
      ],
      "name": "buyTokens",
      "outputs": [],
      "stateMutability": "payable",
      "type": "function",
      "payable": true
    },
    {
      "inputs": [],
      "name": "endSale",
      "outputs": [],
      "stateMutability": "payable",
      "type": "function",
      "payable": true
    }
  ],
  "bytecode": "0x608060405234801561001057600080fd5b50604051610ad7380380610ad78339818101604052810190610032919061015a565b336000806101000a81548173ffffffffffffffffffffffffffffffffffffffff021916908373ffffffffffffffffffffffffffffffffffffffff16021790555081600160006101000a81548173ffffffffffffffffffffffffffffffffffffffff021916908373ffffffffffffffffffffffffffffffffffffffff16021790555080600281905550505061019a565b600080fd5b600073ffffffffffffffffffffffffffffffffffffffff82169050919050565b60006100f1826100c6565b9050919050565b610101816100e6565b811461010c57600080fd5b50565b60008151905061011e816100f8565b92915050565b6000819050919050565b61013781610124565b811461014257600080fd5b50565b6000815190506101548161012e565b92915050565b60008060408385031215610171576101706100c1565b5b600061017f8582860161010f565b925050602061019085828601610145565b9150509250929050565b61092e806101a96000396000f3fe6080604052600436106100555760003560e01c80633610724e1461005a578063380d831b14610076578063518ab2a81461008057806355a373d6146100ab5780637ff9b596146100d6578063f851a44014610101575b600080fd5b610074600480360381019061006f919061059f565b61012c565b005b61007e610319565b005b34801561008c57600080fd5b5061009561050e565b6040516100a291906105db565b60405180910390f35b3480156100b757600080fd5b506100c0610514565b6040516100cd9190610675565b60405180910390f35b3480156100e257600080fd5b506100eb61053a565b6040516100f891906105db565b60405180910390f35b34801561010d57600080fd5b50610116610540565b60405161012391906106b1565b60405180910390f35b6002548161013a91906106fb565b341461017b576040517f08c379a0000000000000000000000000000000000000000000000000000000008152600401610172906107b2565b60405180910390fd5b80600160009054906101000a900473ffffffffffffffffffffffffffffffffffffffff1673ffffffffffffffffffffffffffffffffffffffff166370a08231306040518263ffffffff1660e01b81526004016101d791906106b1565b602060405180830381865afa1580156101f4573d6000803e3d6000fd5b505050506040513d601f19601f8201168201806040525081019061021891906107e7565b101561022357600080fd5b600160009054906101000a900473ffffffffffffffffffffffffffffffffffffffff1673ffffffffffffffffffffffffffffffffffffffff1663a9059cbb33836040518363ffffffff1660e01b8152600401610280929190610814565b6020604051808303816000875af115801561029f573d6000803e3d6000fd5b505050506040513d601f19601f820116820180604052508101906102c39190610875565b5080600360008282546102d691906108a2565b925050819055507f5e5e995ce3133561afceaa51a9a154d5db228cd7525d34df5185582c18d3df09338260405161030e929190610814565b60405180910390a150565b60008054906101000a900473ffffffffffffffffffffffffffffffffffffffff1673ffffffffffffffffffffffffffffffffffffffff163373ffffffffffffffffffffffffffffffffffffffff161461037157600080fd5b600160009054906101000a900473ffffffffffffffffffffffffffffffffffffffff1673ffffffffffffffffffffffffffffffffffffffff1663a9059cbb60008054906101000a900473ffffffffffffffffffffffffffffffffffffffff16600160009054906101000a900473ffffffffffffffffffffffffffffffffffffffff1673ffffffffffffffffffffffffffffffffffffffff166370a08231306040518263ffffffff1660e01b815260040161042b91906106b1565b602060405180830381865afa158015610448573d6000803e3d6000fd5b505050506040513d601f19601f8201168201806040525081019061046c91906107e7565b6040518363ffffffff1660e01b8152600401610489929190610814565b6020604051808303816000875af11580156104a8573d6000803e3d6000fd5b505050506040513d601f19601f820116820180604052508101906104cc9190610875565b50600060028190555060008054906101000a900473ffffffffffffffffffffffffffffffffffffffff1673ffffffffffffffffffffffffffffffffffffffff16ff5b60035481565b600160009054906101000a900473ffffffffffffffffffffffffffffffffffffffff1681565b60025481565b60008054906101000a900473ffffffffffffffffffffffffffffffffffffffff1681565b600080fd5b6000819050919050565b61057c81610569565b811461058757600080fd5b50565b60008135905061059981610573565b92915050565b6000602082840312156105b5576105b4610564565b5b60006105c38482850161058a565b91505092915050565b6105d581610569565b82525050565b60006020820190506105f060008301846105cc565b92915050565b600073ffffffffffffffffffffffffffffffffffffffff82169050919050565b6000819050919050565b600061063b610636610631846105f6565b610616565b6105f6565b9050919050565b600061064d82610620565b9050919050565b600061065f82610642565b9050919050565b61066f81610654565b82525050565b600060208201905061068a6000830184610666565b92915050565b600061069b826105f6565b9050919050565b6106ab81610690565b82525050565b60006020820190506106c660008301846106a2565b92915050565b7f4e487b7100000000000000000000000000000000000000000000000000000000600052601160045260246000fd5b600061070682610569565b915061071183610569565b9250817fffffffffffffffffffffffffffffffffffffffffffffffffffffffffffffffff048311821515161561074a576107496106cc565b5b828202905092915050565b600082825260208201905092915050565b7f506179206d6f7265000000000000000000000000000000000000000000000000600082015250565b600061079c600883610755565b91506107a782610766565b602082019050919050565b600060208201905081810360008301526107cb8161078f565b9050919050565b6000815190506107e181610573565b92915050565b6000602082840312156107fd576107fc610564565b5b600061080b848285016107d2565b91505092915050565b600060408201905061082960008301856106a2565b61083660208301846105cc565b9392505050565b60008115159050919050565b6108528161083d565b811461085d57600080fd5b50565b60008151905061086f81610849565b92915050565b60006020828403121561088b5761088a610564565b5b600061089984828501610860565b91505092915050565b60006108ad82610569565b91506108b883610569565b9250827fffffffffffffffffffffffffffffffffffffffffffffffffffffffffffffffff038211156108ed576108ec6106cc565b5b82820190509291505056fea26469706673582212204830bd342f2f1ef0555fcda1571a13f5cbb4a3011435e387c07e2d221980532064736f6c634300080f0033",
  "immutableReferences": {},
  "source": "// SPDX-License-Identifier: MIT\r\npragma solidity 0.8.15;\r\nimport \"./Interface.sol\";\r\nimport \"./ERC20.sol\";\r\ncontract CrowdSale{\r\n  address public admin;\r\n  Cryptos public tokenContract;\r\n  uint256 public tokenPrice;\r\n  uint256 public tokensSold;\r\n  event Sell(address _buyer, uint256 _amount);\r\n  constructor(address _tokenContract,uint256 _price){\r\n    admin = msg.sender;\r\n    tokenContract = Cryptos(_tokenContract);\r\n    tokenPrice = _price;\r\n  }\r\n  function buyTokens(uint256 _numberOfTokens) public payable{\r\n      require(msg.value == _numberOfTokens * tokenPrice,\"Pay more\");\r\n      require(tokenContract.balanceOf(address(this)) >= _numberOfTokens);\r\n      tokenContract.transfer(msg.sender, _numberOfTokens);\r\n      tokensSold += _numberOfTokens ;\r\n      emit Sell(msg.sender, _numberOfTokens);\r\n  }\r\n  \r\n  function endSale() public payable{\r\n    require(msg.sender == admin);\r\n    tokenContract.transfer(admin, tokenContract.balanceOf(address(this)));\r\n    tokenPrice = 0;\r\n    \r\n    selfdestruct(payable(admin));\r\n  }\r\n}\r\n",
  "sourcePath": "D:\\all laptop\\STUDENT\\4TH YEAR\\SEM 7\\IT474 BLOCKCHAIN TECHNOLOGY\\projects\\TokenSale\\ERC20TokenSale\\contracts\\CrowdSale.sol",
  "compiler": {
    "name": "solc",
    "version": "0.8.15+commit.e14f2714.Emscripten.clang"
  },
  "schemaVersion": "3.4.8",
  "updatedAt": "2022-10-27T18:25:04.897Z",
  "networkType": "ethereum",
  "devdoc": {
    "kind": "dev",
    "methods": {},
    "version": 1
  },
  "userdoc": {
    "kind": "user",
    "methods": {},
    "version": 1
  }
}